{
  "address": "0xA82874ccAab1BB37F1654DD3a4E9c6bF850d8237",
  "abi": [
    {
      "inputs": [],
      "stateMutability": "nonpayable",
      "type": "constructor"
    },
    {
      "inputs": [],
      "name": "No_TokenUriSet",
      "type": "error"
    },
    {
      "anonymous": false,
      "inputs": [
        {
          "indexed": true,
          "internalType": "address",
          "name": "account",
          "type": "address"
        },
        {
          "indexed": true,
          "internalType": "address",
          "name": "operator",
          "type": "address"
        },
        {
          "indexed": false,
          "internalType": "bool",
          "name": "approved",
          "type": "bool"
        }
      ],
      "name": "ApprovalForAll",
      "type": "event"
    },
    {
      "anonymous": false,
      "inputs": [
        {
          "indexed": true,
          "internalType": "address",
          "name": "previousOwner",
          "type": "address"
        },
        {
          "indexed": true,
          "internalType": "address",
          "name": "newOwner",
          "type": "address"
        }
      ],
      "name": "OwnershipTransferred",
      "type": "event"
    },
    {
      "anonymous": false,
      "inputs": [
        {
          "indexed": true,
          "internalType": "address",
          "name": "operator",
          "type": "address"
        },
        {
          "indexed": true,
          "internalType": "address",
          "name": "from",
          "type": "address"
        },
        {
          "indexed": true,
          "internalType": "address",
          "name": "to",
          "type": "address"
        },
        {
          "indexed": false,
          "internalType": "uint256[]",
          "name": "ids",
          "type": "uint256[]"
        },
        {
          "indexed": false,
          "internalType": "uint256[]",
          "name": "values",
          "type": "uint256[]"
        }
      ],
      "name": "TransferBatch",
      "type": "event"
    },
    {
      "anonymous": false,
      "inputs": [
        {
          "indexed": true,
          "internalType": "address",
          "name": "operator",
          "type": "address"
        },
        {
          "indexed": true,
          "internalType": "address",
          "name": "from",
          "type": "address"
        },
        {
          "indexed": true,
          "internalType": "address",
          "name": "to",
          "type": "address"
        },
        {
          "indexed": false,
          "internalType": "uint256",
          "name": "id",
          "type": "uint256"
        },
        {
          "indexed": false,
          "internalType": "uint256",
          "name": "value",
          "type": "uint256"
        }
      ],
      "name": "TransferSingle",
      "type": "event"
    },
    {
      "anonymous": false,
      "inputs": [
        {
          "indexed": false,
          "internalType": "string",
          "name": "value",
          "type": "string"
        },
        {
          "indexed": true,
          "internalType": "uint256",
          "name": "id",
          "type": "uint256"
        }
      ],
      "name": "URI",
      "type": "event"
    },
    {
      "inputs": [
        {
          "internalType": "address",
          "name": "account",
          "type": "address"
        },
        {
          "internalType": "uint256",
          "name": "id",
          "type": "uint256"
        }
      ],
      "name": "balanceOf",
      "outputs": [
        {
          "internalType": "uint256",
          "name": "",
          "type": "uint256"
        }
      ],
      "stateMutability": "view",
      "type": "function"
    },
    {
      "inputs": [
        {
          "internalType": "address[]",
          "name": "accounts",
          "type": "address[]"
        },
        {
          "internalType": "uint256[]",
          "name": "ids",
          "type": "uint256[]"
        }
      ],
      "name": "balanceOfBatch",
      "outputs": [
        {
          "internalType": "uint256[]",
          "name": "",
          "type": "uint256[]"
        }
      ],
      "stateMutability": "view",
      "type": "function"
    },
    {
      "inputs": [
        {
          "internalType": "address",
          "name": "account",
          "type": "address"
        },
        {
          "internalType": "address",
          "name": "operator",
          "type": "address"
        }
      ],
      "name": "isApprovedForAll",
      "outputs": [
        {
          "internalType": "bool",
          "name": "",
          "type": "bool"
        }
      ],
      "stateMutability": "view",
      "type": "function"
    },
    {
      "inputs": [
        {
          "internalType": "address",
          "name": "to",
          "type": "address"
        },
        {
          "internalType": "uint256",
          "name": "tokenId",
          "type": "uint256"
        },
        {
          "internalType": "uint256",
          "name": "amount",
          "type": "uint256"
        }
      ],
      "name": "mint",
      "outputs": [],
      "stateMutability": "nonpayable",
      "type": "function"
    },
    {
      "inputs": [
        {
          "internalType": "address",
          "name": "to",
          "type": "address"
        },
        {
          "internalType": "uint256[]",
          "name": "tokenId",
          "type": "uint256[]"
        },
        {
          "internalType": "uint256[]",
          "name": "amount",
          "type": "uint256[]"
        }
      ],
      "name": "mintBatch",
      "outputs": [],
      "stateMutability": "nonpayable",
      "type": "function"
    },
    {
      "inputs": [],
      "name": "name",
      "outputs": [
        {
          "internalType": "string",
          "name": "",
          "type": "string"
        }
      ],
      "stateMutability": "view",
      "type": "function"
    },
    {
      "inputs": [],
      "name": "owner",
      "outputs": [
        {
          "internalType": "address",
          "name": "",
          "type": "address"
        }
      ],
      "stateMutability": "view",
      "type": "function"
    },
    {
      "inputs": [],
      "name": "renounceOwnership",
      "outputs": [],
      "stateMutability": "nonpayable",
      "type": "function"
    },
    {
      "inputs": [
        {
          "internalType": "address",
          "name": "from",
          "type": "address"
        },
        {
          "internalType": "address",
          "name": "to",
          "type": "address"
        },
        {
          "internalType": "uint256[]",
          "name": "ids",
          "type": "uint256[]"
        },
        {
          "internalType": "uint256[]",
          "name": "amounts",
          "type": "uint256[]"
        },
        {
          "internalType": "bytes",
          "name": "data",
          "type": "bytes"
        }
      ],
      "name": "safeBatchTransferFrom",
      "outputs": [],
      "stateMutability": "nonpayable",
      "type": "function"
    },
    {
      "inputs": [
        {
          "internalType": "address",
          "name": "from",
          "type": "address"
        },
        {
          "internalType": "address",
          "name": "to",
          "type": "address"
        },
        {
          "internalType": "uint256",
          "name": "id",
          "type": "uint256"
        },
        {
          "internalType": "uint256",
          "name": "amount",
          "type": "uint256"
        },
        {
          "internalType": "bytes",
          "name": "data",
          "type": "bytes"
        }
      ],
      "name": "safeTransferFrom",
      "outputs": [],
      "stateMutability": "nonpayable",
      "type": "function"
    },
    {
      "inputs": [
        {
          "internalType": "address",
          "name": "operator",
          "type": "address"
        },
        {
          "internalType": "bool",
          "name": "approved",
          "type": "bool"
        }
      ],
      "name": "setApprovalForAll",
      "outputs": [],
      "stateMutability": "nonpayable",
      "type": "function"
    },
    {
      "inputs": [
        {
          "internalType": "uint256",
          "name": "tokenId",
          "type": "uint256"
        },
        {
          "internalType": "string",
          "name": "uri_",
          "type": "string"
        }
      ],
      "name": "setTokenURI",
      "outputs": [],
      "stateMutability": "nonpayable",
      "type": "function"
    },
    {
      "inputs": [
        {
          "internalType": "bytes4",
          "name": "interfaceId",
          "type": "bytes4"
        }
      ],
      "name": "supportsInterface",
      "outputs": [
        {
          "internalType": "bool",
          "name": "",
          "type": "bool"
        }
      ],
      "stateMutability": "view",
      "type": "function"
    },
    {
      "inputs": [
        {
          "internalType": "uint256",
          "name": "tokenId",
          "type": "uint256"
        }
      ],
      "name": "totalSupply",
      "outputs": [
        {
          "internalType": "uint256",
          "name": "",
          "type": "uint256"
        }
      ],
      "stateMutability": "view",
      "type": "function"
    },
    {
      "inputs": [
        {
          "internalType": "address",
          "name": "newOwner",
          "type": "address"
        }
      ],
      "name": "transferOwnership",
      "outputs": [],
      "stateMutability": "nonpayable",
      "type": "function"
    },
    {
      "inputs": [
        {
          "internalType": "uint256",
          "name": "tokenId",
          "type": "uint256"
        }
      ],
      "name": "uri",
      "outputs": [
        {
          "internalType": "string",
          "name": "",
          "type": "string"
        }
      ],
      "stateMutability": "view",
      "type": "function"
    }
  ],
  "transactionHash": "0x255c0d274188003b6a5ce56e6899110379f89e907fb90cdfd2156cb61f42c6b6",
  "args": [],
  "numDeployments": 1,
  "solcInputHash": "2119ab517702c2e37cd343777e4c56ef",
  "bytecode": "0x60806040523480156200001157600080fd5b506040518060200160405280600081525062000033816200006260201b60201c565b5060016003819055506200005c620000506200007e60201b60201c565b6200008660201b60201c565b62000261565b80600290805190602001906200007a9291906200014c565b5050565b600033905090565b6000600460009054906101000a900473ffffffffffffffffffffffffffffffffffffffff16905081600460006101000a81548173ffffffffffffffffffffffffffffffffffffffff021916908373ffffffffffffffffffffffffffffffffffffffff1602179055508173ffffffffffffffffffffffffffffffffffffffff168173ffffffffffffffffffffffffffffffffffffffff167f8be0079c531659141344cd1fd0a4f28419497f9722a3daafe3b4186f6b6457e060405160405180910390a35050565b8280546200015a906200022b565b90600052602060002090601f0160209004810192826200017e5760008555620001ca565b82601f106200019957805160ff1916838001178555620001ca565b82800160010185558215620001ca579182015b82811115620001c9578251825591602001919060010190620001ac565b5b509050620001d99190620001dd565b5090565b5b80821115620001f8576000816000905550600101620001de565b5090565b7f4e487b7100000000000000000000000000000000000000000000000000000000600052602260045260246000fd5b600060028204905060018216806200024457607f821691505b602082108114156200025b576200025a620001fc565b5b50919050565b61345580620002716000396000f3fe608060405234801561001057600080fd5b50600436106100ff5760003560e01c8063715018a611610097578063d81d0a1511610066578063d81d0a15146102aa578063e985e9c5146102c6578063f242432a146102f6578063f2fde38b14610312576100ff565b8063715018a6146102365780638da5cb5b14610240578063a22cb4651461025e578063bd85b0391461027a576100ff565b8063156e29f6116100d3578063156e29f6146101b2578063162094c4146101ce5780632eb2c2d6146101ea5780634e1273f414610206576100ff565b8062fdd58e1461010457806301ffc9a71461013457806306fdde03146101645780630e89341c14610182575b600080fd5b61011e60048036038101906101199190611efe565b61032e565b60405161012b9190611f4d565b60405180910390f35b61014e60048036038101906101499190611fc0565b6103f7565b60405161015b9190612008565b60405180910390f35b61016c6104d9565b60405161017991906120bc565b60405180910390f35b61019c600480360381019061019791906120de565b610512565b6040516101a991906120bc565b60405180910390f35b6101cc60048036038101906101c7919061210b565b6105b7565b005b6101e860048036038101906101e391906121c3565b61068f565b005b61020460048036038101906101ff9190612416565b6106b7565b005b610220600480360381019061021b91906125a8565b610758565b60405161022d91906126de565b60405180910390f35b61023e610871565b005b610248610885565b604051610255919061270f565b60405180910390f35b61027860048036038101906102739190612756565b6108af565b005b610294600480360381019061028f91906120de565b6108c5565b6040516102a19190611f4d565b60405180910390f35b6102c460048036038101906102bf9190612796565b6108e2565b005b6102e060048036038101906102db9190612821565b6109f4565b6040516102ed9190612008565b60405180910390f35b610310600480360381019061030b9190612861565b610a88565b005b61032c600480360381019061032791906128f8565b610b29565b005b60008073ffffffffffffffffffffffffffffffffffffffff168373ffffffffffffffffffffffffffffffffffffffff16141561039f576040517f08c379a000000000000000000000000000000000000000000000000000000000815260040161039690612997565b60405180910390fd5b60008083815260200190815260200160002060008473ffffffffffffffffffffffffffffffffffffffff1673ffffffffffffffffffffffffffffffffffffffff16815260200190815260200160002054905092915050565b60007fd9b67a26000000000000000000000000000000000000000000000000000000007bffffffffffffffffffffffffffffffffffffffffffffffffffffffff1916827bffffffffffffffffffffffffffffffffffffffffffffffffffffffff191614806104c257507f0e89341c000000000000000000000000000000000000000000000000000000007bffffffffffffffffffffffffffffffffffffffffffffffffffffffff1916827bffffffffffffffffffffffffffffffffffffffffffffffffffffffff1916145b806104d257506104d182610bad565b5b9050919050565b6040518060400160405280600281526020017f495800000000000000000000000000000000000000000000000000000000000081525081565b6060600560008381526020019081526020016000208054610532906129e6565b80601f016020809104026020016040519081016040528092919081815260200182805461055e906129e6565b80156105ab5780601f10610580576101008083540402835291602001916105ab565b820191906000526020600020905b81548152906001019060200180831161058e57829003601f168201915b50505050509050919050565b6105bf610c17565b60026003541415610605576040517f08c379a00000000000000000000000000000000000000000000000000000000081526004016105fc90612a64565b60405180910390fd5b6002600381905550600060056000848152602001908152602001600020805461062d906129e6565b90501415610667576040517fcf852d3f00000000000000000000000000000000000000000000000000000000815260040160405180910390fd5b61068283838360405180602001604052806000815250610c95565b6001600381905550505050565b81816005600086815260200190815260200160002091906106b1929190611db3565b50505050565b6106bf610cd1565b73ffffffffffffffffffffffffffffffffffffffff168573ffffffffffffffffffffffffffffffffffffffff1614806107055750610704856106ff610cd1565b6109f4565b5b610744576040517f08c379a000000000000000000000000000000000000000000000000000000000815260040161073b90612af6565b60405180910390fd5b6107518585858585610cd9565b5050505050565b6060815183511461079e576040517f08c379a000000000000000000000000000000000000000000000000000000000815260040161079590612b88565b60405180910390fd5b6000835167ffffffffffffffff8111156107bb576107ba612223565b5b6040519080825280602002602001820160405280156107e95781602001602082028036833780820191505090505b50905060005b84518110156108665761083685828151811061080e5761080d612ba8565b5b602002602001015185838151811061082957610828612ba8565b5b602002602001015161032e565b82828151811061084957610848612ba8565b5b6020026020010181815250508061085f90612c06565b90506107ef565b508091505092915050565b610879610c17565b6108836000610ffb565b565b6000600460009054906101000a900473ffffffffffffffffffffffffffffffffffffffff16905090565b6108c16108ba610cd1565b83836110c1565b5050565b600060066000838152602001908152602001600020549050919050565b6108ea610c17565b60026003541415610930576040517f08c379a000000000000000000000000000000000000000000000000000000000815260040161092790612a64565b60405180910390fd5b600260038190555060005b82518110156109cb5760006005600085848151811061095d5761095c612ba8565b5b60200260200101518152602001908152602001600020805461097e906129e6565b905014156109b8576040517fcf852d3f00000000000000000000000000000000000000000000000000000000815260040160405180910390fd5b80806109c390612c06565b91505061093b565b506109e78383836040518060200160405280600081525061122e565b6001600381905550505050565b6000600160008473ffffffffffffffffffffffffffffffffffffffff1673ffffffffffffffffffffffffffffffffffffffff16815260200190815260200160002060008373ffffffffffffffffffffffffffffffffffffffff1673ffffffffffffffffffffffffffffffffffffffff16815260200190815260200160002060009054906101000a900460ff16905092915050565b610a90610cd1565b73ffffffffffffffffffffffffffffffffffffffff168573ffffffffffffffffffffffffffffffffffffffff161480610ad65750610ad585610ad0610cd1565b6109f4565b5b610b15576040517f08c379a0000000000000000000000000000000000000000000000000000000008152600401610b0c90612af6565b60405180910390fd5b610b2285858585856112be565b5050505050565b610b31610c17565b600073ffffffffffffffffffffffffffffffffffffffff168173ffffffffffffffffffffffffffffffffffffffff161415610ba1576040517f08c379a0000000000000000000000000000000000000000000000000000000008152600401610b9890612cc1565b60405180910390fd5b610baa81610ffb565b50565b60007f01ffc9a7000000000000000000000000000000000000000000000000000000007bffffffffffffffffffffffffffffffffffffffffffffffffffffffff1916827bffffffffffffffffffffffffffffffffffffffffffffffffffffffff1916149050919050565b610c1f610cd1565b73ffffffffffffffffffffffffffffffffffffffff16610c3d610885565b73ffffffffffffffffffffffffffffffffffffffff1614610c93576040517f08c379a0000000000000000000000000000000000000000000000000000000008152600401610c8a90612d2d565b60405180910390fd5b565b610ca18484848461155a565b81600660008581526020019081526020016000206000828254610cc49190612d4d565b9250508190555050505050565b600033905090565b8151835114610d1d576040517f08c379a0000000000000000000000000000000000000000000000000000000008152600401610d1490612e15565b60405180910390fd5b600073ffffffffffffffffffffffffffffffffffffffff168473ffffffffffffffffffffffffffffffffffffffff161415610d8d576040517f08c379a0000000000000000000000000000000000000000000000000000000008152600401610d8490612ea7565b60405180910390fd5b6000610d97610cd1565b9050610da781878787878761170b565b60005b8451811015610f58576000858281518110610dc857610dc7612ba8565b5b602002602001015190506000858381518110610de757610de6612ba8565b5b60200260200101519050600080600084815260200190815260200160002060008b73ffffffffffffffffffffffffffffffffffffffff1673ffffffffffffffffffffffffffffffffffffffff16815260200190815260200160002054905081811015610e88576040517f08c379a0000000000000000000000000000000000000000000000000000000008152600401610e7f90612f39565b60405180910390fd5b81810360008085815260200190815260200160002060008c73ffffffffffffffffffffffffffffffffffffffff1673ffffffffffffffffffffffffffffffffffffffff168152602001908152602001600020819055508160008085815260200190815260200160002060008b73ffffffffffffffffffffffffffffffffffffffff1673ffffffffffffffffffffffffffffffffffffffff1681526020019081526020016000206000828254610f3d9190612d4d565b9250508190555050505080610f5190612c06565b9050610daa565b508473ffffffffffffffffffffffffffffffffffffffff168673ffffffffffffffffffffffffffffffffffffffff168273ffffffffffffffffffffffffffffffffffffffff167f4a39dc06d4c0dbc64b70af90fd698a233a518aa5d07e595d983b8c0526c8f7fb8787604051610fcf929190612f59565b60405180910390a4610fe5818787878787611713565b610ff381878787878761171b565b505050505050565b6000600460009054906101000a900473ffffffffffffffffffffffffffffffffffffffff16905081600460006101000a81548173ffffffffffffffffffffffffffffffffffffffff021916908373ffffffffffffffffffffffffffffffffffffffff1602179055508173ffffffffffffffffffffffffffffffffffffffff168173ffffffffffffffffffffffffffffffffffffffff167f8be0079c531659141344cd1fd0a4f28419497f9722a3daafe3b4186f6b6457e060405160405180910390a35050565b8173ffffffffffffffffffffffffffffffffffffffff168373ffffffffffffffffffffffffffffffffffffffff161415611130576040517f08c379a000000000000000000000000000000000000000000000000000000000815260040161112790613002565b60405180910390fd5b80600160008573ffffffffffffffffffffffffffffffffffffffff1673ffffffffffffffffffffffffffffffffffffffff16815260200190815260200160002060008473ffffffffffffffffffffffffffffffffffffffff1673ffffffffffffffffffffffffffffffffffffffff16815260200190815260200160002060006101000a81548160ff0219169083151502179055508173ffffffffffffffffffffffffffffffffffffffff168373ffffffffffffffffffffffffffffffffffffffff167f17307eab39ab6107e8899845ad3d59bd9653f200f220920489ca2b5937696c31836040516112219190612008565b60405180910390a3505050565b61123a84848484611902565b60005b83518110156112b75782818151811061125957611258612ba8565b5b60200260200101516006600086848151811061127857611277612ba8565b5b60200260200101518152602001908152602001600020600082825461129d9190612d4d565b9250508190555080806112af90612c06565b91505061123d565b5050505050565b600073ffffffffffffffffffffffffffffffffffffffff168473ffffffffffffffffffffffffffffffffffffffff16141561132e576040517f08c379a000000000000000000000000000000000000000000000000000000000815260040161132590612ea7565b60405180910390fd5b6000611338610cd1565b9050600061134585611b2f565b9050600061135285611b2f565b905061136283898985858961170b565b600080600088815260200190815260200160002060008a73ffffffffffffffffffffffffffffffffffffffff1673ffffffffffffffffffffffffffffffffffffffff168152602001908152602001600020549050858110156113f9576040517f08c379a00000000000000000000000000000000000000000000000000000000081526004016113f090612f39565b60405180910390fd5b85810360008089815260200190815260200160002060008b73ffffffffffffffffffffffffffffffffffffffff1673ffffffffffffffffffffffffffffffffffffffff168152602001908152602001600020819055508560008089815260200190815260200160002060008a73ffffffffffffffffffffffffffffffffffffffff1673ffffffffffffffffffffffffffffffffffffffff16815260200190815260200160002060008282546114ae9190612d4d565b925050819055508773ffffffffffffffffffffffffffffffffffffffff168973ffffffffffffffffffffffffffffffffffffffff168573ffffffffffffffffffffffffffffffffffffffff167fc3d58168c5ae7397731d063d5bbf3d657854427343f4c083240f7aacaa2d0f628a8a60405161152b929190613022565b60405180910390a4611541848a8a86868a611713565b61154f848a8a8a8a8a611ba9565b505050505050505050565b600073ffffffffffffffffffffffffffffffffffffffff168473ffffffffffffffffffffffffffffffffffffffff1614156115ca576040517f08c379a00000000000000000000000000000000000000000000000000000000081526004016115c1906130bd565b60405180910390fd5b60006115d4610cd1565b905060006115e185611b2f565b905060006115ee85611b2f565b90506115ff8360008985858961170b565b8460008088815260200190815260200160002060008973ffffffffffffffffffffffffffffffffffffffff1673ffffffffffffffffffffffffffffffffffffffff168152602001908152602001600020600082825461165e9190612d4d565b925050819055508673ffffffffffffffffffffffffffffffffffffffff16600073ffffffffffffffffffffffffffffffffffffffff168473ffffffffffffffffffffffffffffffffffffffff167fc3d58168c5ae7397731d063d5bbf3d657854427343f4c083240f7aacaa2d0f6289896040516116dc929190613022565b60405180910390a46116f383600089858589611713565b61170283600089898989611ba9565b50505050505050565b505050505050565b505050505050565b61173a8473ffffffffffffffffffffffffffffffffffffffff16611d90565b156118fa578373ffffffffffffffffffffffffffffffffffffffff1663bc197c8187878686866040518663ffffffff1660e01b8152600401611780959493929190613132565b602060405180830381600087803b15801561179a57600080fd5b505af19250505080156117cb57506040513d601f19601f820116820180604052508101906117c891906131af565b60015b611871576117d76131e9565b806308c379a0141561183457506117ec61320b565b806117f75750611836565b806040517f08c379a000000000000000000000000000000000000000000000000000000000815260040161182b91906120bc565b60405180910390fd5b505b6040517f08c379a000000000000000000000000000000000000000000000000000000000815260040161186890613313565b60405180910390fd5b63bc197c8160e01b7bffffffffffffffffffffffffffffffffffffffffffffffffffffffff1916817bffffffffffffffffffffffffffffffffffffffffffffffffffffffff1916146118f8576040517f08c379a00000000000000000000000000000000000000000000000000000000081526004016118ef906133a5565b60405180910390fd5b505b505050505050565b600073ffffffffffffffffffffffffffffffffffffffff168473ffffffffffffffffffffffffffffffffffffffff161415611972576040517f08c379a0000000000000000000000000000000000000000000000000000000008152600401611969906130bd565b60405180910390fd5b81518351146119b6576040517f08c379a00000000000000000000000000000000000000000000000000000000081526004016119ad90612e15565b60405180910390fd5b60006119c0610cd1565b90506119d18160008787878761170b565b60005b8451811015611a8a578381815181106119f0576119ef612ba8565b5b6020026020010151600080878481518110611a0e57611a0d612ba8565b5b6020026020010151815260200190815260200160002060008873ffffffffffffffffffffffffffffffffffffffff1673ffffffffffffffffffffffffffffffffffffffff1681526020019081526020016000206000828254611a709190612d4d565b925050819055508080611a8290612c06565b9150506119d4565b508473ffffffffffffffffffffffffffffffffffffffff16600073ffffffffffffffffffffffffffffffffffffffff168273ffffffffffffffffffffffffffffffffffffffff167f4a39dc06d4c0dbc64b70af90fd698a233a518aa5d07e595d983b8c0526c8f7fb8787604051611b02929190612f59565b60405180910390a4611b1981600087878787611713565b611b288160008787878761171b565b5050505050565b60606000600167ffffffffffffffff811115611b4e57611b4d612223565b5b604051908082528060200260200182016040528015611b7c5781602001602082028036833780820191505090505b5090508281600081518110611b9457611b93612ba8565b5b60200260200101818152505080915050919050565b611bc88473ffffffffffffffffffffffffffffffffffffffff16611d90565b15611d88578373ffffffffffffffffffffffffffffffffffffffff1663f23a6e6187878686866040518663ffffffff1660e01b8152600401611c0e9594939291906133c5565b602060405180830381600087803b158015611c2857600080fd5b505af1925050508015611c5957506040513d601f19601f82011682018060405250810190611c5691906131af565b60015b611cff57611c656131e9565b806308c379a01415611cc25750611c7a61320b565b80611c855750611cc4565b806040517f08c379a0000000000000000000000000000000000000000000000000000000008152600401611cb991906120bc565b60405180910390fd5b505b6040517f08c379a0000000000000000000000000000000000000000000000000000000008152600401611cf690613313565b60405180910390fd5b63f23a6e6160e01b7bffffffffffffffffffffffffffffffffffffffffffffffffffffffff1916817bffffffffffffffffffffffffffffffffffffffffffffffffffffffff191614611d86576040517f08c379a0000000000000000000000000000000000000000000000000000000008152600401611d7d906133a5565b60405180910390fd5b505b505050505050565b6000808273ffffffffffffffffffffffffffffffffffffffff163b119050919050565b828054611dbf906129e6565b90600052602060002090601f016020900481019282611de15760008555611e28565b82601f10611dfa57803560ff1916838001178555611e28565b82800160010185558215611e28579182015b82811115611e27578235825591602001919060010190611e0c565b5b509050611e359190611e39565b5090565b5b80821115611e52576000816000905550600101611e3a565b5090565b6000604051905090565b600080fd5b600080fd5b600073ffffffffffffffffffffffffffffffffffffffff82169050919050565b6000611e9582611e6a565b9050919050565b611ea581611e8a565b8114611eb057600080fd5b50565b600081359050611ec281611e9c565b92915050565b6000819050919050565b611edb81611ec8565b8114611ee657600080fd5b50565b600081359050611ef881611ed2565b92915050565b60008060408385031215611f1557611f14611e60565b5b6000611f2385828601611eb3565b9250506020611f3485828601611ee9565b9150509250929050565b611f4781611ec8565b82525050565b6000602082019050611f626000830184611f3e565b92915050565b60007fffffffff0000000000000000000000000000000000000000000000000000000082169050919050565b611f9d81611f68565b8114611fa857600080fd5b50565b600081359050611fba81611f94565b92915050565b600060208284031215611fd657611fd5611e60565b5b6000611fe484828501611fab565b91505092915050565b60008115159050919050565b61200281611fed565b82525050565b600060208201905061201d6000830184611ff9565b92915050565b600081519050919050565b600082825260208201905092915050565b60005b8381101561205d578082015181840152602081019050612042565b8381111561206c576000848401525b50505050565b6000601f19601f8301169050919050565b600061208e82612023565b612098818561202e565b93506120a881856020860161203f565b6120b181612072565b840191505092915050565b600060208201905081810360008301526120d68184612083565b905092915050565b6000602082840312156120f4576120f3611e60565b5b600061210284828501611ee9565b91505092915050565b60008060006060848603121561212457612123611e60565b5b600061213286828701611eb3565b935050602061214386828701611ee9565b925050604061215486828701611ee9565b9150509250925092565b600080fd5b600080fd5b600080fd5b60008083601f8401126121835761218261215e565b5b8235905067ffffffffffffffff8111156121a05761219f612163565b5b6020830191508360018202830111156121bc576121bb612168565b5b9250929050565b6000806000604084860312156121dc576121db611e60565b5b60006121ea86828701611ee9565b935050602084013567ffffffffffffffff81111561220b5761220a611e65565b5b6122178682870161216d565b92509250509250925092565b7f4e487b7100000000000000000000000000000000000000000000000000000000600052604160045260246000fd5b61225b82612072565b810181811067ffffffffffffffff8211171561227a57612279612223565b5b80604052505050565b600061228d611e56565b90506122998282612252565b919050565b600067ffffffffffffffff8211156122b9576122b8612223565b5b602082029050602081019050919050565b60006122dd6122d88461229e565b612283565b90508083825260208201905060208402830185811115612300576122ff612168565b5b835b8181101561232957806123158882611ee9565b845260208401935050602081019050612302565b5050509392505050565b600082601f8301126123485761234761215e565b5b81356123588482602086016122ca565b91505092915050565b600080fd5b600067ffffffffffffffff82111561238157612380612223565b5b61238a82612072565b9050602081019050919050565b82818337600083830152505050565b60006123b96123b484612366565b612283565b9050828152602081018484840111156123d5576123d4612361565b5b6123e0848285612397565b509392505050565b600082601f8301126123fd576123fc61215e565b5b813561240d8482602086016123a6565b91505092915050565b600080600080600060a0868803121561243257612431611e60565b5b600061244088828901611eb3565b955050602061245188828901611eb3565b945050604086013567ffffffffffffffff81111561247257612471611e65565b5b61247e88828901612333565b935050606086013567ffffffffffffffff81111561249f5761249e611e65565b5b6124ab88828901612333565b925050608086013567ffffffffffffffff8111156124cc576124cb611e65565b5b6124d8888289016123e8565b9150509295509295909350565b600067ffffffffffffffff821115612500576124ff612223565b5b602082029050602081019050919050565b600061252461251f846124e5565b612283565b9050808382526020820190506020840283018581111561254757612546612168565b5b835b81811015612570578061255c8882611eb3565b845260208401935050602081019050612549565b5050509392505050565b600082601f83011261258f5761258e61215e565b5b813561259f848260208601612511565b91505092915050565b600080604083850312156125bf576125be611e60565b5b600083013567ffffffffffffffff8111156125dd576125dc611e65565b5b6125e98582860161257a565b925050602083013567ffffffffffffffff81111561260a57612609611e65565b5b61261685828601612333565b9150509250929050565b600081519050919050565b600082825260208201905092915050565b6000819050602082019050919050565b61265581611ec8565b82525050565b6000612667838361264c565b60208301905092915050565b6000602082019050919050565b600061268b82612620565b612695818561262b565b93506126a08361263c565b8060005b838110156126d15781516126b8888261265b565b97506126c383612673565b9250506001810190506126a4565b5085935050505092915050565b600060208201905081810360008301526126f88184612680565b905092915050565b61270981611e8a565b82525050565b60006020820190506127246000830184612700565b92915050565b61273381611fed565b811461273e57600080fd5b50565b6000813590506127508161272a565b92915050565b6000806040838503121561276d5761276c611e60565b5b600061277b85828601611eb3565b925050602061278c85828601612741565b9150509250929050565b6000806000606084860312156127af576127ae611e60565b5b60006127bd86828701611eb3565b935050602084013567ffffffffffffffff8111156127de576127dd611e65565b5b6127ea86828701612333565b925050604084013567ffffffffffffffff81111561280b5761280a611e65565b5b61281786828701612333565b9150509250925092565b6000806040838503121561283857612837611e60565b5b600061284685828601611eb3565b925050602061285785828601611eb3565b9150509250929050565b600080600080600060a0868803121561287d5761287c611e60565b5b600061288b88828901611eb3565b955050602061289c88828901611eb3565b94505060406128ad88828901611ee9565b93505060606128be88828901611ee9565b925050608086013567ffffffffffffffff8111156128df576128de611e65565b5b6128eb888289016123e8565b9150509295509295909350565b60006020828403121561290e5761290d611e60565b5b600061291c84828501611eb3565b91505092915050565b7f455243313135353a2061646472657373207a65726f206973206e6f742061207660008201527f616c6964206f776e657200000000000000000000000000000000000000000000602082015250565b6000612981602a8361202e565b915061298c82612925565b604082019050919050565b600060208201905081810360008301526129b081612974565b9050919050565b7f4e487b7100000000000000000000000000000000000000000000000000000000600052602260045260246000fd5b600060028204905060018216806129fe57607f821691505b60208210811415612a1257612a116129b7565b5b50919050565b7f5265656e7472616e637947756172643a207265656e7472616e742063616c6c00600082015250565b6000612a4e601f8361202e565b9150612a5982612a18565b602082019050919050565b60006020820190508181036000830152612a7d81612a41565b9050919050565b7f455243313135353a2063616c6c6572206973206e6f7420746f6b656e206f776e60008201527f6572206e6f7220617070726f7665640000000000000000000000000000000000602082015250565b6000612ae0602f8361202e565b9150612aeb82612a84565b604082019050919050565b60006020820190508181036000830152612b0f81612ad3565b9050919050565b7f455243313135353a206163636f756e747320616e6420696473206c656e67746860008201527f206d69736d617463680000000000000000000000000000000000000000000000602082015250565b6000612b7260298361202e565b9150612b7d82612b16565b604082019050919050565b60006020820190508181036000830152612ba181612b65565b9050919050565b7f4e487b7100000000000000000000000000000000000000000000000000000000600052603260045260246000fd5b7f4e487b7100000000000000000000000000000000000000000000000000000000600052601160045260246000fd5b6000612c1182611ec8565b91507fffffffffffffffffffffffffffffffffffffffffffffffffffffffffffffffff821415612c4457612c43612bd7565b5b600182019050919050565b7f4f776e61626c653a206e6577206f776e657220697320746865207a65726f206160008201527f6464726573730000000000000000000000000000000000000000000000000000602082015250565b6000612cab60268361202e565b9150612cb682612c4f565b604082019050919050565b60006020820190508181036000830152612cda81612c9e565b9050919050565b7f4f776e61626c653a2063616c6c6572206973206e6f7420746865206f776e6572600082015250565b6000612d1760208361202e565b9150612d2282612ce1565b602082019050919050565b60006020820190508181036000830152612d4681612d0a565b9050919050565b6000612d5882611ec8565b9150612d6383611ec8565b9250827fffffffffffffffffffffffffffffffffffffffffffffffffffffffffffffffff03821115612d9857612d97612bd7565b5b828201905092915050565b7f455243313135353a2069647320616e6420616d6f756e7473206c656e6774682060008201527f6d69736d61746368000000000000000000000000000000000000000000000000602082015250565b6000612dff60288361202e565b9150612e0a82612da3565b604082019050919050565b60006020820190508181036000830152612e2e81612df2565b9050919050565b7f455243313135353a207472616e7366657220746f20746865207a65726f20616460008201527f6472657373000000000000000000000000000000000000000000000000000000602082015250565b6000612e9160258361202e565b9150612e9c82612e35565b604082019050919050565b60006020820190508181036000830152612ec081612e84565b9050919050565b7f455243313135353a20696e73756666696369656e742062616c616e636520666f60008201527f72207472616e7366657200000000000000000000000000000000000000000000602082015250565b6000612f23602a8361202e565b9150612f2e82612ec7565b604082019050919050565b60006020820190508181036000830152612f5281612f16565b9050919050565b60006040820190508181036000830152612f738185612680565b90508181036020830152612f878184612680565b90509392505050565b7f455243313135353a2073657474696e6720617070726f76616c2073746174757360008201527f20666f722073656c660000000000000000000000000000000000000000000000602082015250565b6000612fec60298361202e565b9150612ff782612f90565b604082019050919050565b6000602082019050818103600083015261301b81612fdf565b9050919050565b60006040820190506130376000830185611f3e565b6130446020830184611f3e565b9392505050565b7f455243313135353a206d696e7420746f20746865207a65726f2061646472657360008201527f7300000000000000000000000000000000000000000000000000000000000000602082015250565b60006130a760218361202e565b91506130b28261304b565b604082019050919050565b600060208201905081810360008301526130d68161309a565b9050919050565b600081519050919050565b600082825260208201905092915050565b6000613104826130dd565b61310e81856130e8565b935061311e81856020860161203f565b61312781612072565b840191505092915050565b600060a0820190506131476000830188612700565b6131546020830187612700565b81810360408301526131668186612680565b9050818103606083015261317a8185612680565b9050818103608083015261318e81846130f9565b90509695505050505050565b6000815190506131a981611f94565b92915050565b6000602082840312156131c5576131c4611e60565b5b60006131d38482850161319a565b91505092915050565b60008160e01c9050919050565b600060033d11156132085760046000803e6132056000516131dc565b90505b90565b600060443d101561321b5761329e565b613223611e56565b60043d036004823e80513d602482011167ffffffffffffffff8211171561324b57505061329e565b808201805167ffffffffffffffff811115613269575050505061329e565b80602083010160043d03850181111561328657505050505061329e565b61329582602001850186612252565b82955050505050505b90565b7f455243313135353a207472616e7366657220746f206e6f6e204552433131353560008201527f526563656976657220696d706c656d656e746572000000000000000000000000602082015250565b60006132fd60348361202e565b9150613308826132a1565b604082019050919050565b6000602082019050818103600083015261332c816132f0565b9050919050565b7f455243313135353a204552433131353552656365697665722072656a6563746560008201527f6420746f6b656e73000000000000000000000000000000000000000000000000602082015250565b600061338f60288361202e565b915061339a82613333565b604082019050919050565b600060208201905081810360008301526133be81613382565b9050919050565b600060a0820190506133da6000830188612700565b6133e76020830187612700565b6133f46040830186611f3e565b6134016060830185611f3e565b818103608083015261341381846130f9565b9050969550505050505056fea2646970667358221220645b1273a24b049dcdc82a84051cf03e944bb65da3fddcac6fdc1c92edd356bc64736f6c63430008090033",
  "devdoc": {
    "kind": "dev",
    "methods": {
      "balanceOf(address,uint256)": {
        "details": "See {IERC1155-balanceOf}. Requirements: - `account` cannot be the zero address."
      },
      "balanceOfBatch(address[],uint256[])": {
        "details": "See {IERC1155-balanceOfBatch}. Requirements: - `accounts` and `ids` must have the same length."
      },
      "isApprovedForAll(address,address)": {
        "details": "See {IERC1155-isApprovedForAll}."
      },
      "mint(address,uint256,uint256)": {
        "details": "Mint token"
      },
      "mintBatch(address,uint256[],uint256[])": {
        "details": "MintBatch token"
      },
      "owner()": {
        "details": "Returns the address of the current owner."
      },
      "renounceOwnership()": {
        "details": "Leaves the contract without owner. It will not be possible to call `onlyOwner` functions anymore. Can only be called by the current owner. NOTE: Renouncing ownership will leave the contract without an owner, thereby removing any functionality that is only available to the owner."
      },
      "safeBatchTransferFrom(address,address,uint256[],uint256[],bytes)": {
        "details": "See {IERC1155-safeBatchTransferFrom}."
      },
      "safeTransferFrom(address,address,uint256,uint256,bytes)": {
        "details": "See {IERC1155-safeTransferFrom}."
      },
      "setApprovalForAll(address,bool)": {
        "details": "See {IERC1155-setApprovalForAll}."
      },
      "setTokenURI(uint256,string)": {
        "details": "Set token URI"
      },
      "supportsInterface(bytes4)": {
        "details": "See {IERC165-supportsInterface}."
      },
      "totalSupply(uint256)": {
        "details": "Total amount of tokens in with a given id."
      },
      "transferOwnership(address)": {
        "details": "Transfers ownership of the contract to a new account (`newOwner`). Can only be called by the current owner."
      },
      "uri(uint256)": {
        "details": "Get token URI"
      }
    },
    "version": 1
  },
  "userdoc": {
    "kind": "user",
    "methods": {},
    "version": 1
  },
  "storageLayout": {
    "storage": [
      {
        "astId": 178,
        "contract": "contracts/IX.sol:IX",
        "label": "_balances",
        "offset": 0,
        "slot": "0",
        "type": "t_mapping(t_uint256,t_mapping(t_address,t_uint256))"
      },
      {
        "astId": 184,
        "contract": "contracts/IX.sol:IX",
        "label": "_operatorApprovals",
        "offset": 0,
        "slot": "1",
        "type": "t_mapping(t_address,t_mapping(t_address,t_bool))"
      },
      {
        "astId": 186,
        "contract": "contracts/IX.sol:IX",
        "label": "_uri",
        "offset": 0,
        "slot": "2",
        "type": "t_string_storage"
      },
      {
        "astId": 123,
        "contract": "contracts/IX.sol:IX",
        "label": "_status",
        "offset": 0,
        "slot": "3",
        "type": "t_uint256"
      },
      {
        "astId": 7,
        "contract": "contracts/IX.sol:IX",
        "label": "_owner",
        "offset": 0,
        "slot": "4",
        "type": "t_address"
      },
      {
        "astId": 1926,
        "contract": "contracts/IX.sol:IX",
        "label": "s_uris",
        "offset": 0,
        "slot": "5",
        "type": "t_mapping(t_uint256,t_string_storage)"
      },
      {
        "astId": 1930,
        "contract": "contracts/IX.sol:IX",
        "label": "s_totalSupply",
        "offset": 0,
        "slot": "6",
        "type": "t_mapping(t_uint256,t_uint256)"
      }
    ],
    "types": {
      "t_address": {
        "encoding": "inplace",
        "label": "address",
        "numberOfBytes": "20"
      },
      "t_bool": {
        "encoding": "inplace",
        "label": "bool",
        "numberOfBytes": "1"
      },
      "t_mapping(t_address,t_bool)": {
        "encoding": "mapping",
        "key": "t_address",
        "label": "mapping(address => bool)",
        "numberOfBytes": "32",
        "value": "t_bool"
      },
      "t_mapping(t_address,t_mapping(t_address,t_bool))": {
        "encoding": "mapping",
        "key": "t_address",
        "label": "mapping(address => mapping(address => bool))",
        "numberOfBytes": "32",
        "value": "t_mapping(t_address,t_bool)"
      },
      "t_mapping(t_address,t_uint256)": {
        "encoding": "mapping",
        "key": "t_address",
        "label": "mapping(address => uint256)",
        "numberOfBytes": "32",
        "value": "t_uint256"
      },
      "t_mapping(t_uint256,t_mapping(t_address,t_uint256))": {
        "encoding": "mapping",
        "key": "t_uint256",
        "label": "mapping(uint256 => mapping(address => uint256))",
        "numberOfBytes": "32",
        "value": "t_mapping(t_address,t_uint256)"
      },
      "t_mapping(t_uint256,t_string_storage)": {
        "encoding": "mapping",
        "key": "t_uint256",
        "label": "mapping(uint256 => string)",
        "numberOfBytes": "32",
        "value": "t_string_storage"
      },
      "t_mapping(t_uint256,t_uint256)": {
        "encoding": "mapping",
        "key": "t_uint256",
        "label": "mapping(uint256 => uint256)",
        "numberOfBytes": "32",
        "value": "t_uint256"
      },
      "t_string_storage": {
        "encoding": "bytes",
        "label": "string",
        "numberOfBytes": "32"
      },
      "t_uint256": {
        "encoding": "inplace",
        "label": "uint256",
        "numberOfBytes": "32"
      }
    }
  }
}